{
  "address": "0x429C321752c8a5C6D5930b1F18624e21D5f0E358",
  "abi": [
    {
      "inputs": [
        {
          "internalType": "address",
          "name": "_paymentToken",
          "type": "address"
        },
        {
          "internalType": "uint256",
          "name": "_taxRate",
          "type": "uint256"
        },
        {
          "internalType": "address",
          "name": "_safe",
          "type": "address"
        },
        {
          "internalType": "address",
          "name": "_masterWallet",
          "type": "address"
        }
      ],
      "stateMutability": "nonpayable",
      "type": "constructor"
    },
    {
      "anonymous": false,
      "inputs": [
        {
          "indexed": true,
          "internalType": "address",
          "name": "owner",
          "type": "address"
        },
        {
          "indexed": true,
          "internalType": "address",
          "name": "approved",
          "type": "address"
        },
        {
          "indexed": true,
          "internalType": "uint256",
          "name": "tokenId",
          "type": "uint256"
        }
      ],
      "name": "Approval",
      "type": "event"
    },
    {
      "anonymous": false,
      "inputs": [
        {
          "indexed": true,
          "internalType": "address",
          "name": "owner",
          "type": "address"
        },
        {
          "indexed": true,
          "internalType": "address",
          "name": "operator",
          "type": "address"
        },
        {
          "indexed": false,
          "internalType": "bool",
          "name": "approved",
          "type": "bool"
        }
      ],
      "name": "ApprovalForAll",
      "type": "event"
    },
    {
      "anonymous": false,
      "inputs": [
        {
          "indexed": true,
          "internalType": "address",
          "name": "from",
          "type": "address"
        },
        {
          "indexed": true,
          "internalType": "address",
          "name": "to",
          "type": "address"
        },
        {
          "indexed": true,
          "internalType": "uint256",
          "name": "tokenId",
          "type": "uint256"
        }
      ],
      "name": "Transfer",
      "type": "event"
    },
    {
      "inputs": [
        {
          "internalType": "address",
          "name": "to",
          "type": "address"
        },
        {
          "internalType": "uint256",
          "name": "tokenId",
          "type": "uint256"
        }
      ],
      "name": "approve",
      "outputs": [],
      "stateMutability": "nonpayable",
      "type": "function"
    },
    {
      "inputs": [
        {
          "internalType": "uint256",
          "name": "",
          "type": "uint256"
        }
      ],
      "name": "author",
      "outputs": [
        {
          "internalType": "address",
          "name": "",
          "type": "address"
        }
      ],
      "stateMutability": "view",
      "type": "function"
    },
    {
      "inputs": [
        {
          "internalType": "uint256",
          "name": "",
          "type": "uint256"
        }
      ],
      "name": "authorComissionPercent",
      "outputs": [
        {
          "internalType": "uint256",
          "name": "",
          "type": "uint256"
        }
      ],
      "stateMutability": "view",
      "type": "function"
    },
    {
      "inputs": [
        {
          "internalType": "address",
          "name": "owner",
          "type": "address"
        }
      ],
      "name": "balanceOf",
      "outputs": [
        {
          "internalType": "uint256",
          "name": "",
          "type": "uint256"
        }
      ],
      "stateMutability": "view",
      "type": "function"
    },
    {
      "inputs": [
        {
          "internalType": "uint256",
          "name": "",
          "type": "uint256"
        }
      ],
      "name": "fileHash",
      "outputs": [
        {
          "internalType": "string",
          "name": "",
          "type": "string"
        }
      ],
      "stateMutability": "view",
      "type": "function"
    },
    {
      "inputs": [
        {
          "internalType": "uint256",
          "name": "tokenId",
          "type": "uint256"
        }
      ],
      "name": "getApproved",
      "outputs": [
        {
          "internalType": "address",
          "name": "",
          "type": "address"
        }
      ],
      "stateMutability": "view",
      "type": "function"
    },
    {
      "inputs": [
        {
          "internalType": "address",
          "name": "owner",
          "type": "address"
        },
        {
          "internalType": "address",
          "name": "operator",
          "type": "address"
        }
      ],
      "name": "isApprovedForAll",
      "outputs": [
        {
          "internalType": "bool",
          "name": "",
          "type": "bool"
        }
      ],
      "stateMutability": "view",
      "type": "function"
    },
    {
      "inputs": [
        {
          "internalType": "uint256",
          "name": "tokenId",
          "type": "uint256"
        },
        {
          "internalType": "address",
          "name": "sender",
          "type": "address"
        }
      ],
      "name": "masterBuy",
      "outputs": [],
      "stateMutability": "nonpayable",
      "type": "function"
    },
    {
      "inputs": [
        {
          "internalType": "string",
          "name": "_videoHash",
          "type": "string"
        },
        {
          "internalType": "uint256",
          "name": "_authorComissionPercent",
          "type": "uint256"
        },
        {
          "internalType": "address",
          "name": "sender",
          "type": "address"
        }
      ],
      "name": "masterMint",
      "outputs": [
        {
          "internalType": "uint256",
          "name": "",
          "type": "uint256"
        }
      ],
      "stateMutability": "nonpayable",
      "type": "function"
    },
    {
      "inputs": [
        {
          "internalType": "uint256",
          "name": "tokenId",
          "type": "uint256"
        },
        {
          "internalType": "uint256",
          "name": "newPrice",
          "type": "uint256"
        },
        {
          "internalType": "address",
          "name": "sender",
          "type": "address"
        }
      ],
      "name": "masterSetPrice",
      "outputs": [],
      "stateMutability": "nonpayable",
      "type": "function"
    },
    {
      "inputs": [],
      "name": "name",
      "outputs": [
        {
          "internalType": "string",
          "name": "",
          "type": "string"
        }
      ],
      "stateMutability": "view",
      "type": "function"
    },
    {
      "inputs": [
        {
          "internalType": "uint256",
          "name": "tokenId",
          "type": "uint256"
        }
      ],
      "name": "ownerOf",
      "outputs": [
        {
          "internalType": "address",
          "name": "",
          "type": "address"
        }
      ],
      "stateMutability": "view",
      "type": "function"
    },
    {
      "inputs": [
        {
          "internalType": "uint256",
          "name": "",
          "type": "uint256"
        }
      ],
      "name": "price",
      "outputs": [
        {
          "internalType": "uint256",
          "name": "",
          "type": "uint256"
        }
      ],
      "stateMutability": "view",
      "type": "function"
    },
    {
      "inputs": [
        {
          "internalType": "address",
          "name": "from",
          "type": "address"
        },
        {
          "internalType": "address",
          "name": "to",
          "type": "address"
        },
        {
          "internalType": "uint256",
          "name": "tokenId",
          "type": "uint256"
        }
      ],
      "name": "safeTransferFrom",
      "outputs": [],
      "stateMutability": "nonpayable",
      "type": "function"
    },
    {
      "inputs": [
        {
          "internalType": "address",
          "name": "from",
          "type": "address"
        },
        {
          "internalType": "address",
          "name": "to",
          "type": "address"
        },
        {
          "internalType": "uint256",
          "name": "tokenId",
          "type": "uint256"
        },
        {
          "internalType": "bytes",
          "name": "_data",
          "type": "bytes"
        }
      ],
      "name": "safeTransferFrom",
      "outputs": [],
      "stateMutability": "nonpayable",
      "type": "function"
    },
    {
      "inputs": [
        {
          "internalType": "address",
          "name": "operator",
          "type": "address"
        },
        {
          "internalType": "bool",
          "name": "approved",
          "type": "bool"
        }
      ],
      "name": "setApprovalForAll",
      "outputs": [],
      "stateMutability": "nonpayable",
      "type": "function"
    },
    {
      "inputs": [
        {
          "internalType": "address",
          "name": "_masterWallet",
          "type": "address"
        }
      ],
      "name": "setMasterWallet",
      "outputs": [],
      "stateMutability": "nonpayable",
      "type": "function"
    },
    {
      "inputs": [
        {
          "internalType": "bytes4",
          "name": "interfaceId",
          "type": "bytes4"
        }
      ],
      "name": "supportsInterface",
      "outputs": [
        {
          "internalType": "bool",
          "name": "",
          "type": "bool"
        }
      ],
      "stateMutability": "view",
      "type": "function"
    },
    {
      "inputs": [],
      "name": "symbol",
      "outputs": [
        {
          "internalType": "string",
          "name": "",
          "type": "string"
        }
      ],
      "stateMutability": "view",
      "type": "function"
    },
    {
      "inputs": [
        {
          "internalType": "uint256",
          "name": "tokenId",
          "type": "uint256"
        }
      ],
      "name": "tokenURI",
      "outputs": [
        {
          "internalType": "string",
          "name": "",
          "type": "string"
        }
      ],
      "stateMutability": "view",
      "type": "function"
    },
    {
      "inputs": [
        {
          "internalType": "address",
          "name": "from",
          "type": "address"
        },
        {
          "internalType": "address",
          "name": "to",
          "type": "address"
        },
        {
          "internalType": "uint256",
          "name": "tokenId",
          "type": "uint256"
        }
      ],
      "name": "transferFrom",
      "outputs": [],
      "stateMutability": "nonpayable",
      "type": "function"
    }
  ],
  "transactionHash": "0xceb223ba8f7a9e7d999bc9dde33fd7bc75565a3ee7b9232d1171a41bc3a3e99a",
  "args": [
    "0x57e2d63ca5131bf7c44f7639975c53142ab9a761",
    10,
    "0x42261b574358b4EE8ad3D43FB416B4D82D61CD93",
    "0x1c9458660891A6C6ad27bc9e348B7C285c149014"
  ],
  "numDeployments": 3,
  "solcInputHash": "b8896971e4d2aa00c0447247caa09d18",
  "bytecode": "0x60806040523480156200001157600080fd5b5060405162002081380380620020818339810160408190526200003491620001a4565b6040805180820182526007815266476c696d70736560c81b602080830191825283518085019094526004845263474c4d5360e01b9084015281519192916200007f91600091620000e1565b50805162000095906001906020840190620000e1565b5050600d80546001600160a01b039687166001600160a01b031991821617909155600b9490945550600e805492851692841692909217909155600f805491909316911617905562000234565b828054620000ef90620001f7565b90600052602060002090601f0160209004810192826200011357600085556200015e565b82601f106200012e57805160ff19168380011785556200015e565b828001600101855582156200015e579182015b828111156200015e57825182559160200191906001019062000141565b506200016c92915062000170565b5090565b5b808211156200016c576000815560010162000171565b80516001600160a01b03811681146200019f57600080fd5b919050565b60008060008060808587031215620001ba578384fd5b620001c58562000187565b935060208501519250620001dc6040860162000187565b9150620001ec6060860162000187565b905092959194509250565b600181811c908216806200020c57607f821691505b602082108114156200022e57634e487b7160e01b600052602260045260246000fd5b50919050565b611e3d80620002446000396000f3fe608060405234801561001057600080fd5b50600436106101375760003560e01c80636352211e116100b8578063a99224411161007c578063a9922441146102a7578063b88d4fde146102ba578063ba059199146102cd578063c87b56dd146102e0578063e985e9c5146102f3578063ec4eb4421461032f57600080fd5b80636352211e1461025357806370a082311461026657806395d89b4114610279578063a22cb46514610281578063a6c7bf8a1461029457600080fd5b806326a49e37116100ff57806326a49e37146101cc5780632ba19dad146101fa5780633a2fa2de1461020d57806342842e0e14610220578063445267711461023357600080fd5b806301ffc9a71461013c57806306fdde0314610164578063081812fc14610179578063095ea7b3146101a457806323b872dd146101b9575b600080fd5b61014f61014a3660046119bf565b610358565b60405190151581526020015b60405180910390f35b61016c6103aa565b60405161015b9190611bad565b61018c610187366004611a7b565b61043c565b6040516001600160a01b03909116815260200161015b565b6101b76101b236600461197a565b6104d6565b005b6101b76101c7366004611834565b6105ec565b6101ec6101da366004611a7b565b60096020526000908152604090205481565b60405190815260200161015b565b6101b7610208366004611ab5565b61061d565b61016c61021b366004611a7b565b6106c3565b6101b761022e366004611834565b61075d565b6101ec610241366004611a7b565b60076020526000908152604090205481565b61018c610261366004611a7b565b610778565b6101ec6102743660046117e8565b6107ef565b61016c610876565b6101b761028f366004611944565b610885565b6101b76102a23660046117e8565b610894565b6101b76102b5366004611a93565b6108e0565b6101b76102c836600461186f565b610aaf565b6101ec6102db3660046119f7565b610ae1565b61016c6102ee366004611a7b565b610ca6565b61014f610301366004611802565b6001600160a01b03918216600090815260056020908152604080832093909416825291909152205460ff1690565b61018c61033d366004611a7b565b6008602052600090815260409020546001600160a01b031681565b60006001600160e01b031982166380ac58cd60e01b148061038957506001600160e01b03198216635b5e139f60e01b145b806103a457506301ffc9a760e01b6001600160e01b03198316145b92915050565b6060600080546103b990611d34565b80601f01602080910402602001604051908101604052809291908181526020018280546103e590611d34565b80156104325780601f1061040757610100808354040283529160200191610432565b820191906000526020600020905b81548152906001019060200180831161041557829003601f168201915b5050505050905090565b6000818152600260205260408120546001600160a01b03166104ba5760405162461bcd60e51b815260206004820152602c60248201527f4552433732313a20617070726f76656420717565727920666f72206e6f6e657860448201526b34b9ba32b73a103a37b5b2b760a11b60648201526084015b60405180910390fd5b506000908152600460205260409020546001600160a01b031690565b60006104e182610778565b9050806001600160a01b0316836001600160a01b0316141561054f5760405162461bcd60e51b815260206004820152602160248201527f4552433732313a20617070726f76616c20746f2063757272656e74206f776e656044820152603960f91b60648201526084016104b1565b336001600160a01b038216148061056b575061056b8133610301565b6105dd5760405162461bcd60e51b815260206004820152603860248201527f4552433732313a20617070726f76652063616c6c6572206973206e6f74206f7760448201527f6e6572206e6f7220617070726f76656420666f7220616c6c000000000000000060648201526084016104b1565b6105e78383610d8e565b505050565b6105f63382610dfc565b6106125760405162461bcd60e51b81526004016104b190611c55565b6105e7838383610eef565b600f546001600160a01b031633146106475760405162461bcd60e51b81526004016104b190611c12565b61065083610778565b6001600160a01b0316816001600160a01b0316146106b05760405162461bcd60e51b815260206004820152601a60248201527f4d757374206265206f776e657220746f2073657420707269636500000000000060448201526064016104b1565b5060009182526009602052604090912055565b600660205260009081526040902080546106dc90611d34565b80601f016020809104026020016040519081016040528092919081815260200182805461070890611d34565b80156107555780601f1061072a57610100808354040283529160200191610755565b820191906000526020600020905b81548152906001019060200180831161073857829003601f168201915b505050505081565b6105e783838360405180602001604052806000815250610aaf565b6000818152600260205260408120546001600160a01b0316806103a45760405162461bcd60e51b815260206004820152602960248201527f4552433732313a206f776e657220717565727920666f72206e6f6e657869737460448201526832b73a103a37b5b2b760b91b60648201526084016104b1565b60006001600160a01b03821661085a5760405162461bcd60e51b815260206004820152602a60248201527f4552433732313a2062616c616e636520717565727920666f7220746865207a65604482015269726f206164647265737360b01b60648201526084016104b1565b506001600160a01b031660009081526003602052604090205490565b6060600180546103b990611d34565b61089033838361108b565b5050565b600f546001600160a01b031633146108be5760405162461bcd60e51b81526004016104b190611c12565b600f80546001600160a01b0319166001600160a01b0392909216919091179055565b600f546001600160a01b0316331461090a5760405162461bcd60e51b81526004016104b190611c12565b6000828152600960205260409020546109585760405162461bcd60e51b815260206004820152601060248201526f4e4654206e6f7420666f722073616c6560801b60448201526064016104b1565b600b54600083815260096020526040812054909161097591611cbe565b9050600061098284610778565b6000858152600860205260409020549091506001600160a01b03808316911614156109e2576000848152600960205260409020546109dd90849083906109c9908690611cf1565b600d546001600160a01b031692919061115a565b610a70565b6000848152600760209081526040808320546009909252822054606491610a0891611cd2565b610a129190611cbe565b9050610a4384838386600960008b815260200190815260200160002054610a399190611cf1565b6109c99190611cf1565b600085815260086020526040902054600d54610a6e916001600160a01b03918216918791168461115a565b505b600084815260096020526040812055600e54600d54610a9e916001600160a01b03918216918691168561115a565b610aa9818486610eef565b50505050565b610ab93383610dfc565b610ad55760405162461bcd60e51b81526004016104b190611c55565b610aa9848484846111b4565b600f546000906001600160a01b03163314610b0e5760405162461bcd60e51b81526004016104b190611c12565b600a8585604051610b20929190611b31565b9081526040519081900360200190205460ff1615610b805760405162461bcd60e51b815260206004820152601760248201527f66696c6520616c7265616479207265676973746572656400000000000000000060448201526064016104b1565b600a831115610bdc5760405162461bcd60e51b815260206004820152602260248201527f417574686f7220636f6d697373696f6e2063616e6e6f74206578636564652031604482015261302560f01b60648201526084016104b1565b600c546000908152600660205260409020610bf8908686611733565b50600c80546000908152600760209081526040808320879055925482526008905281902080546001600160a01b0319166001600160a01b03851617905551600190600a90610c499088908890611b31565b908152604051908190036020019020805491151560ff19909216919091179055600c54610c779083906111e7565b600c8054906000610c8783611d6f565b91905055506001600c54610c9b9190611cf1565b90505b949350505050565b6000818152600260205260409020546060906001600160a01b0316610d255760405162461bcd60e51b815260206004820152602f60248201527f4552433732314d657461646174613a2055524920717565727920666f72206e6f60448201526e3732bc34b9ba32b73a103a37b5b2b760891b60648201526084016104b1565b6000610d3c60408051602081019091526000815290565b90506000815111610d5c5760405180602001604052806000815250610d87565b80610d6684611329565b604051602001610d77929190611b41565b6040516020818303038152906040525b9392505050565b600081815260046020526040902080546001600160a01b0319166001600160a01b0384169081179091558190610dc382610778565b6001600160a01b03167f8c5be1e5ebec7d5bd14f71427d1e84f3dd0314c0f7b2291e5b200ac8c7c3b92560405160405180910390a45050565b6000818152600260205260408120546001600160a01b0316610e755760405162461bcd60e51b815260206004820152602c60248201527f4552433732313a206f70657261746f7220717565727920666f72206e6f6e657860448201526b34b9ba32b73a103a37b5b2b760a11b60648201526084016104b1565b6000610e8083610778565b9050806001600160a01b0316846001600160a01b03161480610ebb5750836001600160a01b0316610eb08461043c565b6001600160a01b0316145b80610c9e57506001600160a01b0380821660009081526005602090815260408083209388168352929052205460ff16610c9e565b826001600160a01b0316610f0282610778565b6001600160a01b031614610f665760405162461bcd60e51b815260206004820152602560248201527f4552433732313a207472616e736665722066726f6d20696e636f72726563742060448201526437bbb732b960d91b60648201526084016104b1565b6001600160a01b038216610fc85760405162461bcd60e51b8152602060048201526024808201527f4552433732313a207472616e7366657220746f20746865207a65726f206164646044820152637265737360e01b60648201526084016104b1565b610fd3600082610d8e565b6001600160a01b0383166000908152600360205260408120805460019290610ffc908490611cf1565b90915550506001600160a01b038216600090815260036020526040812080546001929061102a908490611ca6565b909155505060008181526002602052604080822080546001600160a01b0319166001600160a01b0386811691821790925591518493918716917fddf252ad1be2c89b69c2b068fc378daa952ba7f163c4a11628f55a4df523b3ef91a4505050565b816001600160a01b0316836001600160a01b031614156110ed5760405162461bcd60e51b815260206004820152601960248201527f4552433732313a20617070726f766520746f2063616c6c65720000000000000060448201526064016104b1565b6001600160a01b03838116600081815260056020908152604080832094871680845294825291829020805460ff191686151590811790915591519182527f17307eab39ab6107e8899845ad3d59bd9653f200f220920489ca2b5937696c31910160405180910390a3505050565b604080516001600160a01b0385811660248301528416604482015260648082018490528251808303909101815260849091019091526020810180516001600160e01b03166323b872dd60e01b179052610aa9908590611443565b6111bf848484610eef565b6111cb84848484611515565b610aa95760405162461bcd60e51b81526004016104b190611bc0565b6001600160a01b03821661123d5760405162461bcd60e51b815260206004820181905260248201527f4552433732313a206d696e7420746f20746865207a65726f206164647265737360448201526064016104b1565b6000818152600260205260409020546001600160a01b0316156112a25760405162461bcd60e51b815260206004820152601c60248201527f4552433732313a20746f6b656e20616c7265616479206d696e7465640000000060448201526064016104b1565b6001600160a01b03821660009081526003602052604081208054600192906112cb908490611ca6565b909155505060008181526002602052604080822080546001600160a01b0319166001600160a01b03861690811790915590518392907fddf252ad1be2c89b69c2b068fc378daa952ba7f163c4a11628f55a4df523b3ef908290a45050565b60608161134d5750506040805180820190915260018152600360fc1b602082015290565b8160005b8115611377578061136181611d6f565b91506113709050600a83611cbe565b9150611351565b60008167ffffffffffffffff8111156113a057634e487b7160e01b600052604160045260246000fd5b6040519080825280601f01601f1916602001820160405280156113ca576020820181803683370190505b5090505b8415610c9e576113df600183611cf1565b91506113ec600a86611d8a565b6113f7906030611ca6565b60f81b81838151811061141a57634e487b7160e01b600052603260045260246000fd5b60200101906001600160f81b031916908160001a90535061143c600a86611cbe565b94506113ce565b6000611498826040518060400160405280602081526020017f5361666545524332303a206c6f772d6c6576656c2063616c6c206661696c6564815250856001600160a01b031661161f9092919063ffffffff16565b8051909150156105e757808060200190518101906114b691906119a3565b6105e75760405162461bcd60e51b815260206004820152602a60248201527f5361666545524332303a204552433230206f7065726174696f6e20646964206e6044820152691bdd081cdd58d8d9595960b21b60648201526084016104b1565b60006001600160a01b0384163b1561161757604051630a85bd0160e11b81526001600160a01b0385169063150b7a0290611559903390899088908890600401611b70565b602060405180830381600087803b15801561157357600080fd5b505af19250505080156115a3575060408051601f3d908101601f191682019092526115a0918101906119db565b60015b6115fd573d8080156115d1576040519150601f19603f3d011682016040523d82523d6000602084013e6115d6565b606091505b5080516115f55760405162461bcd60e51b81526004016104b190611bc0565b805181602001fd5b6001600160e01b031916630a85bd0160e11b149050610c9e565b506001610c9e565b6060610c9e8484600085856001600160a01b0385163b6116815760405162461bcd60e51b815260206004820152601d60248201527f416464726573733a2063616c6c20746f206e6f6e2d636f6e747261637400000060448201526064016104b1565b600080866001600160a01b0316858760405161169d9190611b15565b60006040518083038185875af1925050503d80600081146116da576040519150601f19603f3d011682016040523d82523d6000602084013e6116df565b606091505b50915091506116ef8282866116fa565b979650505050505050565b60608315611709575081610d87565b8251156117195782518084602001fd5b8160405162461bcd60e51b81526004016104b19190611bad565b82805461173f90611d34565b90600052602060002090601f01602090048101928261176157600085556117a7565b82601f1061177a5782800160ff198235161785556117a7565b828001600101855582156117a7579182015b828111156117a757823582559160200191906001019061178c565b506117b39291506117b7565b5090565b5b808211156117b357600081556001016117b8565b80356001600160a01b03811681146117e357600080fd5b919050565b6000602082840312156117f9578081fd5b610d87826117cc565b60008060408385031215611814578081fd5b61181d836117cc565b915061182b602084016117cc565b90509250929050565b600080600060608486031215611848578081fd5b611851846117cc565b925061185f602085016117cc565b9150604084013590509250925092565b60008060008060808587031215611884578081fd5b61188d856117cc565b935061189b602086016117cc565b925060408501359150606085013567ffffffffffffffff808211156118be578283fd5b818701915087601f8301126118d1578283fd5b8135818111156118e3576118e3611dca565b604051601f8201601f19908116603f0116810190838211818310171561190b5761190b611dca565b816040528281528a6020848701011115611923578586fd5b82602086016020830137918201602001949094529598949750929550505050565b60008060408385031215611956578182fd5b61195f836117cc565b9150602083013561196f81611de0565b809150509250929050565b6000806040838503121561198c578182fd5b611995836117cc565b946020939093013593505050565b6000602082840312156119b4578081fd5b8151610d8781611de0565b6000602082840312156119d0578081fd5b8135610d8781611df1565b6000602082840312156119ec578081fd5b8151610d8781611df1565b60008060008060608587031215611a0c578384fd5b843567ffffffffffffffff80821115611a23578586fd5b818701915087601f830112611a36578586fd5b813581811115611a44578687fd5b886020828501011115611a55578687fd5b602092830196509450508501359150611a70604086016117cc565b905092959194509250565b600060208284031215611a8c578081fd5b5035919050565b60008060408385031215611aa5578182fd5b8235915061182b602084016117cc565b600080600060608486031215611ac9578283fd5b8335925060208401359150611ae0604085016117cc565b90509250925092565b60008151808452611b01816020860160208601611d08565b601f01601f19169290920160200192915050565b60008251611b27818460208701611d08565b9190910192915050565b8183823760009101908152919050565b60008351611b53818460208801611d08565b835190830190611b67818360208801611d08565b01949350505050565b6001600160a01b0385811682528416602082015260408101839052608060608201819052600090611ba390830184611ae9565b9695505050505050565b602081526000610d876020830184611ae9565b60208082526032908201527f4552433732313a207472616e7366657220746f206e6f6e20455243373231526560408201527131b2b4bb32b91034b6b83632b6b2b73a32b960711b606082015260800190565b60208082526023908201527f796f752068617665206e6f74207065726d697373696f6e20746f20646f20746860408201526261742160e81b606082015260800190565b60208082526031908201527f4552433732313a207472616e736665722063616c6c6572206973206e6f74206f6040820152701ddb995c881b9bdc88185c1c1c9bdd9959607a1b606082015260800190565b60008219821115611cb957611cb9611d9e565b500190565b600082611ccd57611ccd611db4565b500490565b6000816000190483118215151615611cec57611cec611d9e565b500290565b600082821015611d0357611d03611d9e565b500390565b60005b83811015611d23578181015183820152602001611d0b565b83811115610aa95750506000910152565b600181811c90821680611d4857607f821691505b60208210811415611d6957634e487b7160e01b600052602260045260246000fd5b50919050565b6000600019821415611d8357611d83611d9e565b5060010190565b600082611d9957611d99611db4565b500690565b634e487b7160e01b600052601160045260246000fd5b634e487b7160e01b600052601260045260246000fd5b634e487b7160e01b600052604160045260246000fd5b8015158114611dee57600080fd5b50565b6001600160e01b031981168114611dee57600080fdfea2646970667358221220ff134edabbf20e1f4028f7fbd730275f0e8184dc11378eafccde9110ec90311b64736f6c63430008040033",
  "devdoc": {
    "kind": "dev",
    "methods": {
      "approve(address,uint256)": {
        "details": "See {IERC721-approve}."
      },
      "balanceOf(address)": {
        "details": "See {IERC721-balanceOf}."
      },
      "getApproved(uint256)": {
        "details": "See {IERC721-getApproved}."
      },
      "isApprovedForAll(address,address)": {
        "details": "See {IERC721-isApprovedForAll}."
      },
      "name()": {
        "details": "See {IERC721Metadata-name}."
      },
      "ownerOf(uint256)": {
        "details": "See {IERC721-ownerOf}."
      },
      "safeTransferFrom(address,address,uint256)": {
        "details": "See {IERC721-safeTransferFrom}."
      },
      "safeTransferFrom(address,address,uint256,bytes)": {
        "details": "See {IERC721-safeTransferFrom}."
      },
      "setApprovalForAll(address,bool)": {
        "details": "See {IERC721-setApprovalForAll}."
      },
      "supportsInterface(bytes4)": {
        "details": "See {IERC165-supportsInterface}."
      },
      "symbol()": {
        "details": "See {IERC721Metadata-symbol}."
      },
      "tokenURI(uint256)": {
        "details": "See {IERC721Metadata-tokenURI}."
      },
      "transferFrom(address,address,uint256)": {
        "details": "See {IERC721-transferFrom}."
      }
    },
    "version": 1
  },
  "userdoc": {
    "kind": "user",
    "methods": {},
    "notice": "This contract adds three different ways to exchange tokens 1 - Auction 2 - Offer that can be accepted by the owner 3 - Direct purchase for a set price",
    "version": 1
  },
  "storageLayout": {
    "storage": [
      {
        "astId": 940,
        "contract": "contracts/Marketplace.sol:Marketplace",
        "label": "_name",
        "offset": 0,
        "slot": "0",
        "type": "t_string_storage"
      },
      {
        "astId": 942,
        "contract": "contracts/Marketplace.sol:Marketplace",
        "label": "_symbol",
        "offset": 0,
        "slot": "1",
        "type": "t_string_storage"
      },
      {
        "astId": 946,
        "contract": "contracts/Marketplace.sol:Marketplace",
        "label": "_owners",
        "offset": 0,
        "slot": "2",
        "type": "t_mapping(t_uint256,t_address)"
      },
      {
        "astId": 950,
        "contract": "contracts/Marketplace.sol:Marketplace",
        "label": "_balances",
        "offset": 0,
        "slot": "3",
        "type": "t_mapping(t_address,t_uint256)"
      },
      {
        "astId": 954,
        "contract": "contracts/Marketplace.sol:Marketplace",
        "label": "_tokenApprovals",
        "offset": 0,
        "slot": "4",
        "type": "t_mapping(t_uint256,t_address)"
      },
      {
        "astId": 960,
        "contract": "contracts/Marketplace.sol:Marketplace",
        "label": "_operatorApprovals",
        "offset": 0,
        "slot": "5",
        "type": "t_mapping(t_address,t_mapping(t_address,t_bool))"
      },
      {
        "astId": 2513,
        "contract": "contracts/Marketplace.sol:Marketplace",
        "label": "fileHash",
        "offset": 0,
        "slot": "6",
        "type": "t_mapping(t_uint256,t_string_storage)"
      },
      {
        "astId": 2517,
        "contract": "contracts/Marketplace.sol:Marketplace",
        "label": "authorComissionPercent",
        "offset": 0,
        "slot": "7",
        "type": "t_mapping(t_uint256,t_uint256)"
      },
      {
        "astId": 2521,
        "contract": "contracts/Marketplace.sol:Marketplace",
        "label": "author",
        "offset": 0,
        "slot": "8",
        "type": "t_mapping(t_uint256,t_address)"
      },
      {
        "astId": 2525,
        "contract": "contracts/Marketplace.sol:Marketplace",
        "label": "price",
        "offset": 0,
        "slot": "9",
        "type": "t_mapping(t_uint256,t_uint256)"
      },
      {
        "astId": 2529,
        "contract": "contracts/Marketplace.sol:Marketplace",
        "label": "hashExists",
        "offset": 0,
        "slot": "10",
        "type": "t_mapping(t_string_memory_ptr,t_bool)"
      },
      {
        "astId": 2531,
        "contract": "contracts/Marketplace.sol:Marketplace",
        "label": "taxRate",
        "offset": 0,
        "slot": "11",
        "type": "t_uint256"
      },
      {
        "astId": 2533,
        "contract": "contracts/Marketplace.sol:Marketplace",
        "label": "counter",
        "offset": 0,
        "slot": "12",
        "type": "t_uint256"
      },
      {
        "astId": 2536,
        "contract": "contracts/Marketplace.sol:Marketplace",
        "label": "paymentToken",
        "offset": 0,
        "slot": "13",
        "type": "t_contract(IERC20)665"
      },
      {
        "astId": 2538,
        "contract": "contracts/Marketplace.sol:Marketplace",
        "label": "safe",
        "offset": 0,
        "slot": "14",
        "type": "t_address"
      },
      {
        "astId": 2540,
        "contract": "contracts/Marketplace.sol:Marketplace",
        "label": "masterWallet",
        "offset": 0,
        "slot": "15",
        "type": "t_address"
      }
    ],
    "types": {
      "t_address": {
        "encoding": "inplace",
        "label": "address",
        "numberOfBytes": "20"
      },
      "t_bool": {
        "encoding": "inplace",
        "label": "bool",
        "numberOfBytes": "1"
      },
      "t_contract(IERC20)665": {
        "encoding": "inplace",
        "label": "contract IERC20",
        "numberOfBytes": "20"
      },
      "t_mapping(t_address,t_bool)": {
        "encoding": "mapping",
        "key": "t_address",
        "label": "mapping(address => bool)",
        "numberOfBytes": "32",
        "value": "t_bool"
      },
      "t_mapping(t_address,t_mapping(t_address,t_bool))": {
        "encoding": "mapping",
        "key": "t_address",
        "label": "mapping(address => mapping(address => bool))",
        "numberOfBytes": "32",
        "value": "t_mapping(t_address,t_bool)"
      },
      "t_mapping(t_address,t_uint256)": {
        "encoding": "mapping",
        "key": "t_address",
        "label": "mapping(address => uint256)",
        "numberOfBytes": "32",
        "value": "t_uint256"
      },
      "t_mapping(t_string_memory_ptr,t_bool)": {
        "encoding": "mapping",
        "key": "t_string_memory_ptr",
        "label": "mapping(string => bool)",
        "numberOfBytes": "32",
        "value": "t_bool"
      },
      "t_mapping(t_uint256,t_address)": {
        "encoding": "mapping",
        "key": "t_uint256",
        "label": "mapping(uint256 => address)",
        "numberOfBytes": "32",
        "value": "t_address"
      },
      "t_mapping(t_uint256,t_string_storage)": {
        "encoding": "mapping",
        "key": "t_uint256",
        "label": "mapping(uint256 => string)",
        "numberOfBytes": "32",
        "value": "t_string_storage"
      },
      "t_mapping(t_uint256,t_uint256)": {
        "encoding": "mapping",
        "key": "t_uint256",
        "label": "mapping(uint256 => uint256)",
        "numberOfBytes": "32",
        "value": "t_uint256"
      },
      "t_string_memory_ptr": {
        "encoding": "bytes",
        "label": "string",
        "numberOfBytes": "32"
      },
      "t_string_storage": {
        "encoding": "bytes",
        "label": "string",
        "numberOfBytes": "32"
      },
      "t_uint256": {
        "encoding": "inplace",
        "label": "uint256",
        "numberOfBytes": "32"
      }
    }
  }
}